{
  "_format": "hh3-artifact-1",
  "contractName": "Voting",
  "sourceName": "contracts/Voting.sol",
  "abi": [
    {
      "inputs": [],
      "stateMutability": "nonpayable",
      "type": "constructor"
    },
    {
      "inputs": [
        {
          "internalType": "address",
          "name": "owner",
          "type": "address"
        }
      ],
      "name": "OwnableInvalidOwner",
      "type": "error"
    },
    {
      "inputs": [
        {
          "internalType": "address",
          "name": "account",
          "type": "address"
        }
      ],
      "name": "OwnableUnauthorizedAccount",
      "type": "error"
    },
    {
      "anonymous": false,
      "inputs": [
        {
          "indexed": true,
          "internalType": "address",
          "name": "previousOwner",
          "type": "address"
        },
        {
          "indexed": true,
          "internalType": "address",
          "name": "newOwner",
          "type": "address"
        }
      ],
      "name": "OwnershipTransferred",
      "type": "event"
    },
    {
      "anonymous": false,
      "inputs": [
        {
          "indexed": false,
          "internalType": "uint256",
          "name": "proposalId",
          "type": "uint256"
        }
      ],
      "name": "ProposalRegistered",
      "type": "event"
    },
    {
      "anonymous": false,
      "inputs": [
        {
          "indexed": false,
          "internalType": "address",
          "name": "voter",
          "type": "address"
        },
        {
          "indexed": false,
          "internalType": "uint256",
          "name": "proposalId",
          "type": "uint256"
        }
      ],
      "name": "Voted",
      "type": "event"
    },
    {
      "anonymous": false,
      "inputs": [
        {
          "indexed": false,
          "internalType": "address",
          "name": "voterAddress",
          "type": "address"
        }
      ],
      "name": "VoterRegistered",
      "type": "event"
    },
    {
      "anonymous": false,
      "inputs": [
        {
          "indexed": false,
          "internalType": "enum Voting.WorkflowStatus",
          "name": "previousStatus",
          "type": "uint8"
        },
        {
          "indexed": false,
          "internalType": "enum Voting.WorkflowStatus",
          "name": "newStatus",
          "type": "uint8"
        }
      ],
      "name": "WorkflowStatusChange",
      "type": "event"
    },
    {
      "inputs": [
        {
          "internalType": "string",
          "name": "_desc",
          "type": "string"
        }
      ],
      "name": "addProposal",
      "outputs": [],
      "stateMutability": "nonpayable",
      "type": "function"
    },
    {
      "inputs": [
        {
          "internalType": "address",
          "name": "_addr",
          "type": "address"
        }
      ],
      "name": "addVoter",
      "outputs": [],
      "stateMutability": "nonpayable",
      "type": "function"
    },
    {
      "inputs": [],
      "name": "endProposalsRegistering",
      "outputs": [],
      "stateMutability": "nonpayable",
      "type": "function"
    },
    {
      "inputs": [],
      "name": "endVotingSession",
      "outputs": [],
      "stateMutability": "nonpayable",
      "type": "function"
    },
    {
      "inputs": [
        {
          "internalType": "uint256",
          "name": "_id",
          "type": "uint256"
        }
      ],
      "name": "getOneProposal",
      "outputs": [
        {
          "components": [
            {
              "internalType": "string",
              "name": "description",
              "type": "string"
            },
            {
              "internalType": "uint256",
              "name": "voteCount",
              "type": "uint256"
            }
          ],
          "internalType": "struct Voting.Proposal",
          "name": "",
          "type": "tuple"
        }
      ],
      "stateMutability": "view",
      "type": "function"
    },
    {
      "inputs": [
        {
          "internalType": "address",
          "name": "_addr",
          "type": "address"
        }
      ],
      "name": "getVoter",
      "outputs": [
        {
          "components": [
            {
              "internalType": "bool",
              "name": "isRegistered",
              "type": "bool"
            },
            {
              "internalType": "bool",
              "name": "hasVoted",
              "type": "bool"
            },
            {
              "internalType": "uint256",
              "name": "votedProposalId",
              "type": "uint256"
            }
          ],
          "internalType": "struct Voting.Voter",
          "name": "",
          "type": "tuple"
        }
      ],
      "stateMutability": "view",
      "type": "function"
    },
    {
      "inputs": [],
      "name": "owner",
      "outputs": [
        {
          "internalType": "address",
          "name": "",
          "type": "address"
        }
      ],
      "stateMutability": "view",
      "type": "function"
    },
    {
      "inputs": [],
      "name": "renounceOwnership",
      "outputs": [],
      "stateMutability": "nonpayable",
      "type": "function"
    },
    {
      "inputs": [],
      "name": "restartVoting",
      "outputs": [],
      "stateMutability": "nonpayable",
      "type": "function"
    },
    {
      "inputs": [
        {
          "internalType": "uint256",
          "name": "_id",
          "type": "uint256"
        }
      ],
      "name": "setVote",
      "outputs": [],
      "stateMutability": "nonpayable",
      "type": "function"
    },
    {
      "inputs": [],
      "name": "startProposalsRegistering",
      "outputs": [],
      "stateMutability": "nonpayable",
      "type": "function"
    },
    {
      "inputs": [],
      "name": "startVotingSession",
      "outputs": [],
      "stateMutability": "nonpayable",
      "type": "function"
    },
    {
      "inputs": [],
      "name": "tallyVotes",
      "outputs": [],
      "stateMutability": "nonpayable",
      "type": "function"
    },
    {
      "inputs": [
        {
          "internalType": "address",
          "name": "newOwner",
          "type": "address"
        }
      ],
      "name": "transferOwnership",
      "outputs": [],
      "stateMutability": "nonpayable",
      "type": "function"
    },
    {
      "inputs": [],
      "name": "winningProposalID",
      "outputs": [
        {
          "internalType": "uint256",
          "name": "",
          "type": "uint256"
        }
      ],
      "stateMutability": "view",
      "type": "function"
    },
    {
      "inputs": [],
      "name": "workflowStatus",
      "outputs": [
        {
          "internalType": "enum Voting.WorkflowStatus",
          "name": "",
          "type": "uint8"
        }
      ],
      "stateMutability": "view",
      "type": "function"
    }
  ],
  "bytecode": "0x6080604052348015600e575f5ffd5b503380603357604051631e4fbdf760e01b81525f600482015260240160405180910390fd5b603a81603f565b50608e565b5f80546001600160a01b038381166001600160a01b0319831681178455604051919092169283917f8be0079c531659141344cd1fd0a4f28419497f9722a3daafe3b4186f6b6457e09190a35050565b61139f8061009b5f395ff3fe608060405234801561000f575f5ffd5b50600436106100fb575f3560e01c8063a7bfab1611610093578063d4f50f9811610063578063d4f50f98146101c7578063ee74c67814610200578063f2fde38b14610208578063f4ab9adf1461021b575f5ffd5b8063a7bfab1614610198578063bdc01431146101a0578063c7038a4e146101b7578063c88af42f146101bf575f5ffd5b8063715018a6116100ce578063715018a6146101375780638da5cb5b1461013f578063a1edffa21461015e578063a2788cce14610178575f5ffd5b8063230796ae146100ff5780632fdae3c514610114578063378a217814610127578063490b8c841461012f575b5f5ffd5b61011261010d366004610faa565b61022e565b005b610112610122366004610fc1565b6103d7565b6101126105fc565b610112610717565b610112610832565b5f546040516001600160a01b0390911681526020015b60405180910390f35b60025461016b9060ff1681565b6040516101559190611063565b61018b610186366004610faa565b610845565b6040516101559190611077565b610112610951565b6101a960015481565b604051908152602001610155565b6101126109be565b610112610aef565b6101da6101d53660046110c0565b610b99565b604080518251151581526020808401511515908201529181015190820152606001610155565b610112610c2c565b6101126102163660046110c0565b610cd9565b6101126102293660046110c0565b610d16565b335f9081526004602052604090205460ff166102655760405162461bcd60e51b815260040161025c906110ed565b60405180910390fd5b600360025460ff16600581111561027e5761027e61102f565b1461029b5760405162461bcd60e51b815260040161025c90611119565b335f90815260046020526040902054610100900460ff1615156001036102fc5760405162461bcd60e51b8152602060048201526016602482015275165bdd481a185d9948185b1c9958591e481d9bdd195960521b604482015260640161025c565b60035481106103425760405162461bcd60e51b8152602060048201526012602482015271141c9bdc1bdcd85b081b9bdd08199bdd5b9960721b604482015260640161025c565b335f90815260046020526040902060018101829055805461ff00191661010017905560038054829081106103785761037861115a565b5f9182526020822060016002909202010180549161039583611182565b909155505060408051338152602081018390527f4d99b957a2bc29a30ebd96a7be8e68fe50a3c701db28a91436490b7d53870ca491015b60405180910390a150565b335f9081526004602052604090205460ff166104055760405162461bcd60e51b815260040161025c906110ed565b600160025460ff16600581111561041e5761041e61102f565b1461046b5760405162461bcd60e51b815260206004820152601d60248201527f50726f706f73616c7320617265206e6f7420616c6c6f77656420796574000000604482015260640161025c565b6040516020016104859060208082525f9082015260400190565b6040516020818303038152906040528051906020012082826040516020016104ae92919061119a565b604051602081830303815290604052805190602001200361051d5760405162461bcd60e51b815260206004820152602360248201527f566f7573206e6520706f7576657a20706173206e65207269656e2070726f706f60448201526239b2b960e91b606482015260840161025c565b60408051808201909152606081525f602082015282828080601f0160208091040260200160405190810160405280939291908181526020018383808284375f920182905250938552505060038054600181018255925250815182916002027fc2575a0e9e593c00f959f8c92f12db2869c3395a3b0502d05e2516446f71f85b019081906105aa9082611260565b50602091909101516001918201556003547f92e393e9b54e2f801d3ea4beb0c5e71a21cc34a5d34b77d0fb8a3aa1650dc18f916105e69161131b565b60405190815260200160405180910390a1505050565b610604610e85565b600460025460ff16600581111561061d5761061d61102f565b1461067d5760405162461bcd60e51b815260206004820152602a60248201527f43757272656e7420737461747573206973206e6f7420766f74696e67207365736044820152691cda5bdb88195b99195960b21b606482015260840161025c565b5f805b6003548110156106e2576003828154811061069d5761069d61115a565b905f5260205f20906002020160010154600382815481106106c0576106c061115a565b905f5260205f2090600202016001015411156106da578091505b600101610680565b5060018190556002805460ff191660059081179091556040515f51602061134a5f395f51905f52916103cc916004919061132e565b61071f610e85565b600560025460ff1660058111156107385761073861102f565b146107855760405162461bcd60e51b815260206004820181905260248201527f566f74696e67206379636c65206973206e6f7420636f6d706c65746520796574604482015260640161025c565b5f5b6005548110156107e25760045f600583815481106107a7576107a761115a565b5f9182526020808320909101546001600160a01b031683528201929092526040018120805461ffff1916815560019081019190915501610787565b506107ee60055f610f00565b6107f960035f610f1b565b5f60018190556002805460ff191690556040515f51602061134a5f395f51905f5291610828916005919061132e565b60405180910390a1565b61083a610e85565b6108435f610eb1565b565b60408051808201909152606081525f6020820152335f9081526004602052604090205460ff166108875760405162461bcd60e51b815260040161025c906110ed565b6003828154811061089a5761089a61115a565b905f5260205f2090600202016040518060400160405290815f820180546108c0906111dc565b80601f01602080910402602001604051908101604052809291908181526020018280546108ec906111dc565b80156109375780601f1061090e57610100808354040283529160200191610937565b820191905f5260205f20905b81548152906001019060200180831161091a57829003601f168201915b505050505081526020016001820154815250509050919050565b610959610e85565b600360025460ff1660058111156109725761097261102f565b1461098f5760405162461bcd60e51b815260040161025c90611119565b6002805460ff191660049081179091556040515f51602061134a5f395f51905f5291610828916003919061132e565b6109c6610e85565b5f60025460ff1660058111156109de576109de61102f565b14610a3d5760405162461bcd60e51b815260206004820152602960248201527f5265676973746572696e672070726f706f73616c732063616e742062652073746044820152686172746564206e6f7760b81b606482015260840161025c565b6002805460ff191660019081178255604080518082018252606081525f60208083018290528351808501909452600784526647454e4553495360c81b908401529181526003805493840181559091528051909283927fc2575a0e9e593c00f959f8c92f12db2869c3395a3b0502d05e2516446f71f85b910201908190610ac39082611260565b506020820151816001015550505f51602061134a5f395f51905f525f60016040516103cc92919061132e565b610af7610e85565b600160025460ff166005811115610b1057610b1061102f565b14610b6e5760405162461bcd60e51b815260206004820152602860248201527f5265676973746572696e672070726f706f73616c7320686176656e74207374616044820152671c9d1959081e595d60c21b606482015260840161025c565b6002805460ff1916811781556040515f51602061134a5f395f51905f5291610828916001919061132e565b604080516060810182525f808252602080830182905282840182905233825260049052919091205460ff16610be05760405162461bcd60e51b815260040161025c906110ed565b506001600160a01b03165f908152600460209081526040918290208251606081018452815460ff8082161515835261010090910416151592810192909252600101549181019190915290565b610c34610e85565b6002805460ff166005811115610c4c57610c4c61102f565b14610cad5760405162461bcd60e51b815260206004820152602b60248201527f5265676973746572696e672070726f706f73616c73207068617365206973206e60448201526a1bdd08199a5b9a5cda195960aa1b606482015260840161025c565b6002805460ff1916600390811782556040515f51602061134a5f395f51905f529261082892909161132e565b610ce1610e85565b6001600160a01b038116610d0a57604051631e4fbdf760e01b81525f600482015260240161025c565b610d1381610eb1565b50565b610d1e610e85565b5f60025460ff166005811115610d3657610d3661102f565b14610d8f5760405162461bcd60e51b815260206004820152602360248201527f566f7465727320726567697374726174696f6e206973206e6f74206f70656e206044820152621e595d60ea1b606482015260840161025c565b6001600160a01b0381165f9081526004602052604090205460ff161515600103610df05760405162461bcd60e51b8152602060048201526012602482015271105b1c9958591e481c9959da5cdd195c995960721b604482015260640161025c565b6001600160a01b0381165f818152600460209081526040808320805460ff191660019081179091556005805491820181559093527f036b6384b5eca791c62761152d0c79bb0604c104a5fb6f4eb0703f3154bb3db090920180546001600160a01b0319168417905590519182527fb6be2187d059cc2a55fe29e0e503b566e1e0f8c8780096e185429350acffd3dd91016103cc565b5f546001600160a01b031633146108435760405163118cdaa760e01b815233600482015260240161025c565b5f80546001600160a01b038381166001600160a01b0319831681178455604051919092169283917f8be0079c531659141344cd1fd0a4f28419497f9722a3daafe3b4186f6b6457e09190a35050565b5080545f8255905f5260205f2090810190610d139190610f39565b5080545f8255600202905f5260205f2090810190610d139190610f51565b5b80821115610f4d575f8155600101610f3a565b5090565b80821115610f4d575f610f648282610f73565b505f6001820155600201610f51565b508054610f7f906111dc565b5f825580601f10610f8e575050565b601f0160209004905f5260205f2090810190610d139190610f39565b5f60208284031215610fba575f5ffd5b5035919050565b5f5f60208385031215610fd2575f5ffd5b823567ffffffffffffffff811115610fe8575f5ffd5b8301601f81018513610ff8575f5ffd5b803567ffffffffffffffff81111561100e575f5ffd5b85602082840101111561101f575f5ffd5b6020919091019590945092505050565b634e487b7160e01b5f52602160045260245ffd5b6006811061105f57634e487b7160e01b5f52602160045260245ffd5b9052565b602081016110718284611043565b92915050565b602081525f82516040602084015280518060608501528060208301608086015e5f60808286010152602085015160408501526080601f19601f8301168501019250505092915050565b5f602082840312156110d0575f5ffd5b81356001600160a01b03811681146110e6575f5ffd5b9392505050565b6020808252601290820152712cb7ba93b932903737ba1030903b37ba32b960711b604082015260600190565b60208082526021908201527f566f74696e672073657373696f6e20686176656e7420737461727465642079656040820152601d60fa1b606082015260800190565b634e487b7160e01b5f52603260045260245ffd5b634e487b7160e01b5f52601160045260245ffd5b5f600182016111935761119361116e565b5060010190565b60208152816020820152818360408301375f818301604090810191909152601f909201601f19160101919050565b634e487b7160e01b5f52604160045260245ffd5b600181811c908216806111f057607f821691505b60208210810361120e57634e487b7160e01b5f52602260045260245ffd5b50919050565b601f82111561125b57805f5260205f20601f840160051c810160208510156112395750805b601f840160051c820191505b81811015611258575f8155600101611245565b50505b505050565b815167ffffffffffffffff81111561127a5761127a6111c8565b61128e8161128884546111dc565b84611214565b6020601f8211600181146112c0575f83156112a95750848201515b5f19600385901b1c1916600184901b178455611258565b5f84815260208120601f198516915b828110156112ef57878501518255602094850194600190920191016112cf565b508482101561130c57868401515f19600387901b60f8161c191681555b50505050600190811b01905550565b818103818111156110715761107161116e565b6040810161133c8285611043565b6110e6602083018461104356fe0a97a4ee45751e2abf3e4fc8946939630b11b371ea8ae39ccdc3056e98f5cc3fa264697066735822122078d476fef7a336703267e681c2aa128960fa50c4f3b6bee64f0c6b904e062fed64736f6c634300081c0033",
  "linkReferences": {},
  "deployedLinkReferences": {},
  "immutableReferences": {},
  "inputSourceName": "project/contracts/Voting.sol",
  "buildInfoId": "solc-0_8_28-e8d0d4b3686d6a854dfb9d1b5c0f5c29d8bce316"
}