{
  "_format": "hh3-artifact-1",
  "contractName": "Voting",
  "sourceName": "contracts/Voting.sol",
  "abi": [
    {
      "inputs": [],
      "stateMutability": "nonpayable",
      "type": "constructor"
    },
    {
      "inputs": [
        {
          "internalType": "address",
          "name": "owner",
          "type": "address"
        }
      ],
      "name": "OwnableInvalidOwner",
      "type": "error"
    },
    {
      "inputs": [
        {
          "internalType": "address",
          "name": "account",
          "type": "address"
        }
      ],
      "name": "OwnableUnauthorizedAccount",
      "type": "error"
    },
    {
      "anonymous": false,
      "inputs": [
        {
          "indexed": true,
          "internalType": "address",
          "name": "previousOwner",
          "type": "address"
        },
        {
          "indexed": true,
          "internalType": "address",
          "name": "newOwner",
          "type": "address"
        }
      ],
      "name": "OwnershipTransferred",
      "type": "event"
    },
    {
      "anonymous": false,
      "inputs": [
        {
          "indexed": false,
          "internalType": "uint256",
          "name": "proposalId",
          "type": "uint256"
        }
      ],
      "name": "ProposalRegistered",
      "type": "event"
    },
    {
      "anonymous": false,
      "inputs": [
        {
          "indexed": false,
          "internalType": "address",
          "name": "voter",
          "type": "address"
        },
        {
          "indexed": false,
          "internalType": "uint256",
          "name": "proposalId",
          "type": "uint256"
        }
      ],
      "name": "Voted",
      "type": "event"
    },
    {
      "anonymous": false,
      "inputs": [
        {
          "indexed": false,
          "internalType": "address",
          "name": "voterAddress",
          "type": "address"
        }
      ],
      "name": "VoterRegistered",
      "type": "event"
    },
    {
      "anonymous": false,
      "inputs": [
        {
          "indexed": false,
          "internalType": "enum Voting.WorkflowStatus",
          "name": "previousStatus",
          "type": "uint8"
        },
        {
          "indexed": false,
          "internalType": "enum Voting.WorkflowStatus",
          "name": "newStatus",
          "type": "uint8"
        }
      ],
      "name": "WorkflowStatusChange",
      "type": "event"
    },
    {
      "inputs": [
        {
          "internalType": "string",
          "name": "_desc",
          "type": "string"
        }
      ],
      "name": "addProposal",
      "outputs": [],
      "stateMutability": "nonpayable",
      "type": "function"
    },
    {
      "inputs": [
        {
          "internalType": "address",
          "name": "_addr",
          "type": "address"
        }
      ],
      "name": "addVoter",
      "outputs": [],
      "stateMutability": "nonpayable",
      "type": "function"
    },
    {
      "inputs": [],
      "name": "endProposalsRegistering",
      "outputs": [],
      "stateMutability": "nonpayable",
      "type": "function"
    },
    {
      "inputs": [],
      "name": "endVotingSession",
      "outputs": [],
      "stateMutability": "nonpayable",
      "type": "function"
    },
    {
      "inputs": [
        {
          "internalType": "uint256",
          "name": "_id",
          "type": "uint256"
        }
      ],
      "name": "getOneProposal",
      "outputs": [
        {
          "components": [
            {
              "internalType": "string",
              "name": "description",
              "type": "string"
            },
            {
              "internalType": "uint256",
              "name": "voteCount",
              "type": "uint256"
            }
          ],
          "internalType": "struct Voting.Proposal",
          "name": "",
          "type": "tuple"
        }
      ],
      "stateMutability": "view",
      "type": "function"
    },
    {
      "inputs": [],
      "name": "getProposals",
      "outputs": [
        {
          "components": [
            {
              "internalType": "string",
              "name": "description",
              "type": "string"
            },
            {
              "internalType": "uint256",
              "name": "voteCount",
              "type": "uint256"
            }
          ],
          "internalType": "struct Voting.Proposal[]",
          "name": "",
          "type": "tuple[]"
        }
      ],
      "stateMutability": "view",
      "type": "function"
    },
    {
      "inputs": [
        {
          "internalType": "address",
          "name": "_addr",
          "type": "address"
        }
      ],
      "name": "getVoter",
      "outputs": [
        {
          "components": [
            {
              "internalType": "bool",
              "name": "isRegistered",
              "type": "bool"
            },
            {
              "internalType": "bool",
              "name": "hasVoted",
              "type": "bool"
            },
            {
              "internalType": "uint256",
              "name": "votedProposalId",
              "type": "uint256"
            }
          ],
          "internalType": "struct Voting.Voter",
          "name": "",
          "type": "tuple"
        }
      ],
      "stateMutability": "view",
      "type": "function"
    },
    {
      "inputs": [],
      "name": "owner",
      "outputs": [
        {
          "internalType": "address",
          "name": "",
          "type": "address"
        }
      ],
      "stateMutability": "view",
      "type": "function"
    },
    {
      "inputs": [],
      "name": "renounceOwnership",
      "outputs": [],
      "stateMutability": "nonpayable",
      "type": "function"
    },
    {
      "inputs": [],
      "name": "restartVoting",
      "outputs": [],
      "stateMutability": "nonpayable",
      "type": "function"
    },
    {
      "inputs": [
        {
          "internalType": "uint256",
          "name": "_id",
          "type": "uint256"
        }
      ],
      "name": "setVote",
      "outputs": [],
      "stateMutability": "nonpayable",
      "type": "function"
    },
    {
      "inputs": [],
      "name": "startProposalsRegistering",
      "outputs": [],
      "stateMutability": "nonpayable",
      "type": "function"
    },
    {
      "inputs": [],
      "name": "startVotingSession",
      "outputs": [],
      "stateMutability": "nonpayable",
      "type": "function"
    },
    {
      "inputs": [],
      "name": "tallyVotes",
      "outputs": [],
      "stateMutability": "nonpayable",
      "type": "function"
    },
    {
      "inputs": [
        {
          "internalType": "address",
          "name": "newOwner",
          "type": "address"
        }
      ],
      "name": "transferOwnership",
      "outputs": [],
      "stateMutability": "nonpayable",
      "type": "function"
    },
    {
      "inputs": [],
      "name": "winningProposalID",
      "outputs": [
        {
          "internalType": "uint256",
          "name": "",
          "type": "uint256"
        }
      ],
      "stateMutability": "view",
      "type": "function"
    },
    {
      "inputs": [],
      "name": "workflowStatus",
      "outputs": [
        {
          "internalType": "enum Voting.WorkflowStatus",
          "name": "",
          "type": "uint8"
        }
      ],
      "stateMutability": "view",
      "type": "function"
    }
  ],
  "bytecode": "0x6080604052348015600e575f5ffd5b503380603357604051631e4fbdf760e01b81525f600482015260240160405180910390fd5b603a81603f565b50608e565b5f80546001600160a01b038381166001600160a01b0319831681178455604051919092169283917f8be0079c531659141344cd1fd0a4f28419497f9722a3daafe3b4186f6b6457e09190a35050565b6115bf8061009b5f395ff3fe608060405234801561000f575f5ffd5b5060043610610106575f3560e01c8063a2788cce1161009e578063c88af42f1161006e578063c88af42f146101e3578063d4f50f98146101eb578063ee74c67814610224578063f2fde38b1461022c578063f4ab9adf1461023f575f5ffd5b8063a2788cce1461019c578063a7bfab16146101bc578063bdc01431146101c4578063c7038a4e146101db575f5ffd5b806362564c48116100d957806362564c4814610142578063715018a6146101605780638da5cb5b14610168578063a1edffa214610182575f5ffd5b8063230796ae1461010a5780632fdae3c51461011f578063378a217814610132578063490b8c841461013a575b5f5ffd5b61011d61011836600461115c565b610252565b005b61011d61012d366004611173565b6103fb565b61011d610620565b61011d61073b565b61014a610856565b6040516101579190611223565b60405180910390f35b61011d6109e4565b5f546040516001600160a01b039091168152602001610157565b60025461018f9060ff1681565b60405161015791906112ba565b6101af6101aa36600461115c565b6109f7565b60405161015791906112ce565b61011d610b03565b6101cd60015481565b604051908152602001610157565b61011d610b70565b61011d610ca1565b6101fe6101f93660046112e7565b610d4b565b604080518251151581526020808401511515908201529181015190820152606001610157565b61011d610dde565b61011d61023a3660046112e7565b610e8b565b61011d61024d3660046112e7565b610ec8565b335f9081526004602052604090205460ff166102895760405162461bcd60e51b81526004016102809061130d565b60405180910390fd5b600360025460ff1660058111156102a2576102a2611286565b146102bf5760405162461bcd60e51b815260040161028090611339565b335f90815260046020526040902054610100900460ff1615156001036103205760405162461bcd60e51b8152602060048201526016602482015275165bdd481a185d9948185b1c9958591e481d9bdd195960521b6044820152606401610280565b60035481106103665760405162461bcd60e51b8152602060048201526012602482015271141c9bdc1bdcd85b081b9bdd08199bdd5b9960721b6044820152606401610280565b335f90815260046020526040902060018101829055805461ff001916610100179055600380548290811061039c5761039c61137a565b5f918252602082206001600290920201018054916103b9836113a2565b909155505060408051338152602081018390527f4d99b957a2bc29a30ebd96a7be8e68fe50a3c701db28a91436490b7d53870ca491015b60405180910390a150565b335f9081526004602052604090205460ff166104295760405162461bcd60e51b81526004016102809061130d565b600160025460ff16600581111561044257610442611286565b1461048f5760405162461bcd60e51b815260206004820152601d60248201527f50726f706f73616c7320617265206e6f7420616c6c6f776564207965740000006044820152606401610280565b6040516020016104a99060208082525f9082015260400190565b6040516020818303038152906040528051906020012082826040516020016104d29291906113ba565b60405160208183030381529060405280519060200120036105415760405162461bcd60e51b815260206004820152602360248201527f566f7573206e6520706f7576657a20706173206e65207269656e2070726f706f60448201526239b2b960e91b6064820152608401610280565b60408051808201909152606081525f602082015282828080601f0160208091040260200160405190810160405280939291908181526020018383808284375f920182905250938552505060038054600181018255925250815182916002027fc2575a0e9e593c00f959f8c92f12db2869c3395a3b0502d05e2516446f71f85b019081906105ce9082611480565b50602091909101516001918201556003547f92e393e9b54e2f801d3ea4beb0c5e71a21cc34a5d34b77d0fb8a3aa1650dc18f9161060a9161153b565b60405190815260200160405180910390a1505050565b610628611037565b600460025460ff16600581111561064157610641611286565b146106a15760405162461bcd60e51b815260206004820152602a60248201527f43757272656e7420737461747573206973206e6f7420766f74696e67207365736044820152691cda5bdb88195b99195960b21b6064820152608401610280565b5f805b60035481101561070657600382815481106106c1576106c161137a565b905f5260205f20906002020160010154600382815481106106e4576106e461137a565b905f5260205f2090600202016001015411156106fe578091505b6001016106a4565b5060018190556002805460ff191660059081179091556040515f51602061156a5f395f51905f52916103f0916004919061154e565b610743611037565b600560025460ff16600581111561075c5761075c611286565b146107a95760405162461bcd60e51b815260206004820181905260248201527f566f74696e67206379636c65206973206e6f7420636f6d706c657465207965746044820152606401610280565b5f5b6005548110156108065760045f600583815481106107cb576107cb61137a565b5f9182526020808320909101546001600160a01b031683528201929092526040018120805461ffff19168155600190810191909155016107ab565b5061081260055f6110b2565b61081d60035f6110cd565b5f60018190556002805460ff191690556040515f51602061156a5f395f51905f529161084c916005919061154e565b60405180910390a1565b335f9081526004602052604090205460609060ff168061087f57505f546001600160a01b031633145b6108f15760405162461bcd60e51b815260206004820152603760248201527f4e6f7420617574686f72697a65643a206f6e6c7920766f74657273206f72206f60448201527f776e65722063616e20766965772070726f706f73616c730000000000000000006064820152608401610280565b6003805480602002602001604051908101604052809291908181526020015f905b828210156109db578382905f5260205f2090600202016040518060400160405290815f82018054610942906113fc565b80601f016020809104026020016040519081016040528092919081815260200182805461096e906113fc565b80156109b95780601f10610990576101008083540402835291602001916109b9565b820191905f5260205f20905b81548152906001019060200180831161099c57829003601f168201915b5050505050815260200160018201548152505081526020019060010190610912565b50505050905090565b6109ec611037565b6109f55f611063565b565b60408051808201909152606081525f6020820152335f9081526004602052604090205460ff16610a395760405162461bcd60e51b81526004016102809061130d565b60038281548110610a4c57610a4c61137a565b905f5260205f2090600202016040518060400160405290815f82018054610a72906113fc565b80601f0160208091040260200160405190810160405280929190818152602001828054610a9e906113fc565b8015610ae95780601f10610ac057610100808354040283529160200191610ae9565b820191905f5260205f20905b815481529060010190602001808311610acc57829003601f168201915b505050505081526020016001820154815250509050919050565b610b0b611037565b600360025460ff166005811115610b2457610b24611286565b14610b415760405162461bcd60e51b815260040161028090611339565b6002805460ff191660049081179091556040515f51602061156a5f395f51905f529161084c916003919061154e565b610b78611037565b5f60025460ff166005811115610b9057610b90611286565b14610bef5760405162461bcd60e51b815260206004820152602960248201527f5265676973746572696e672070726f706f73616c732063616e742062652073746044820152686172746564206e6f7760b81b6064820152608401610280565b6002805460ff191660019081178255604080518082018252606081525f60208083018290528351808501909452600784526647454e4553495360c81b908401529181526003805493840181559091528051909283927fc2575a0e9e593c00f959f8c92f12db2869c3395a3b0502d05e2516446f71f85b910201908190610c759082611480565b506020820151816001015550505f51602061156a5f395f51905f525f60016040516103f092919061154e565b610ca9611037565b600160025460ff166005811115610cc257610cc2611286565b14610d205760405162461bcd60e51b815260206004820152602860248201527f5265676973746572696e672070726f706f73616c7320686176656e74207374616044820152671c9d1959081e595d60c21b6064820152608401610280565b6002805460ff1916811781556040515f51602061156a5f395f51905f529161084c916001919061154e565b604080516060810182525f808252602080830182905282840182905233825260049052919091205460ff16610d925760405162461bcd60e51b81526004016102809061130d565b506001600160a01b03165f908152600460209081526040918290208251606081018452815460ff8082161515835261010090910416151592810192909252600101549181019190915290565b610de6611037565b6002805460ff166005811115610dfe57610dfe611286565b14610e5f5760405162461bcd60e51b815260206004820152602b60248201527f5265676973746572696e672070726f706f73616c73207068617365206973206e60448201526a1bdd08199a5b9a5cda195960aa1b6064820152608401610280565b6002805460ff1916600390811782556040515f51602061156a5f395f51905f529261084c92909161154e565b610e93611037565b6001600160a01b038116610ebc57604051631e4fbdf760e01b81525f6004820152602401610280565b610ec581611063565b50565b610ed0611037565b5f60025460ff166005811115610ee857610ee8611286565b14610f415760405162461bcd60e51b815260206004820152602360248201527f566f7465727320726567697374726174696f6e206973206e6f74206f70656e206044820152621e595d60ea1b6064820152608401610280565b6001600160a01b0381165f9081526004602052604090205460ff161515600103610fa25760405162461bcd60e51b8152602060048201526012602482015271105b1c9958591e481c9959da5cdd195c995960721b6044820152606401610280565b6001600160a01b0381165f818152600460209081526040808320805460ff191660019081179091556005805491820181559093527f036b6384b5eca791c62761152d0c79bb0604c104a5fb6f4eb0703f3154bb3db090920180546001600160a01b0319168417905590519182527fb6be2187d059cc2a55fe29e0e503b566e1e0f8c8780096e185429350acffd3dd91016103f0565b5f546001600160a01b031633146109f55760405163118cdaa760e01b8152336004820152602401610280565b5f80546001600160a01b038381166001600160a01b0319831681178455604051919092169283917f8be0079c531659141344cd1fd0a4f28419497f9722a3daafe3b4186f6b6457e09190a35050565b5080545f8255905f5260205f2090810190610ec591906110eb565b5080545f8255600202905f5260205f2090810190610ec59190611103565b5b808211156110ff575f81556001016110ec565b5090565b808211156110ff575f6111168282611125565b505f6001820155600201611103565b508054611131906113fc565b5f825580601f10611140575050565b601f0160209004905f5260205f2090810190610ec591906110eb565b5f6020828403121561116c575f5ffd5b5035919050565b5f5f60208385031215611184575f5ffd5b823567ffffffffffffffff81111561119a575f5ffd5b8301601f810185136111aa575f5ffd5b803567ffffffffffffffff8111156111c0575f5ffd5b8560208284010111156111d1575f5ffd5b6020919091019590945092505050565b5f81516040845280518060408601528060208301606087015e5f60608287010152602084015160208601526060601f19601f8301168601019250505092915050565b5f602082016020835280845180835260408501915060408160051b8601019250602086015f5b8281101561127a57603f198786030184526112658583516111e1565b94506020938401939190910190600101611249565b50929695505050505050565b634e487b7160e01b5f52602160045260245ffd5b600681106112b657634e487b7160e01b5f52602160045260245ffd5b9052565b602081016112c8828461129a565b92915050565b602081525f6112e060208301846111e1565b9392505050565b5f602082840312156112f7575f5ffd5b81356001600160a01b03811681146112e0575f5ffd5b6020808252601290820152712cb7ba93b932903737ba1030903b37ba32b960711b604082015260600190565b60208082526021908201527f566f74696e672073657373696f6e20686176656e7420737461727465642079656040820152601d60fa1b606082015260800190565b634e487b7160e01b5f52603260045260245ffd5b634e487b7160e01b5f52601160045260245ffd5b5f600182016113b3576113b361138e565b5060010190565b60208152816020820152818360408301375f818301604090810191909152601f909201601f19160101919050565b634e487b7160e01b5f52604160045260245ffd5b600181811c9082168061141057607f821691505b60208210810361142e57634e487b7160e01b5f52602260045260245ffd5b50919050565b601f82111561147b57805f5260205f20601f840160051c810160208510156114595750805b601f840160051c820191505b81811015611478575f8155600101611465565b50505b505050565b815167ffffffffffffffff81111561149a5761149a6113e8565b6114ae816114a884546113fc565b84611434565b6020601f8211600181146114e0575f83156114c95750848201515b5f19600385901b1c1916600184901b178455611478565b5f84815260208120601f198516915b8281101561150f57878501518255602094850194600190920191016114ef565b508482101561152c57868401515f19600387901b60f8161c191681555b50505050600190811b01905550565b818103818111156112c8576112c861138e565b6040810161155c828561129a565b6112e0602083018461129a56fe0a97a4ee45751e2abf3e4fc8946939630b11b371ea8ae39ccdc3056e98f5cc3fa2646970667358221220fd130f9f53fd3608395b0962600fc8cab782a2597321b59c104d2f9173224f7964736f6c634300081c0033",
  "linkReferences": {},
  "deployedLinkReferences": {},
  "immutableReferences": {},
  "inputSourceName": "project/contracts/Voting.sol",
  "buildInfoId": "solc-0_8_28-8b5d196cfdddc32fe7f004274deb0cf791832014"
}